:020000040800F2
:10000000A00700202D020008531E00088B1C0008CA
:10001000511E000823040008E12900080000000028
:1000200000000000000000000000000001200008A7
:100030005F04000800000000551E000803200008AF
:10004000470200084702000847020008470200086C
:10005000470200084702000861040008670400081E
:10006000470200084702000847020008470200084C
:10007000470200084702000847020008250400085C
:10008000470200084702000847020008470200082C
:10009000470200084702000847020008470200081C
:1000A000470200084702000847020008470200080C
:1000B000470200080000000000000000470200089E
:1000C000470200080000000000000000470200088E
:1000D000000000004702000847020008000000007E
:1000E000470200084702000800000000000000006E
:1000F0000000000000000000000000000000000000
:10010000000000000000000000000000470200089E
:10011000000000000000000047020008470200083D
:10012000470200084702000847020008470200088B
:10013000470200080000000000000000000000006E
:10014000470200084702000847020008470200086B
:10015000470200084702000847020008470200085B
:10016000470200084702000847020008000000009C
:1001700047020008470200080000000000000000DD
:1001800047020008470200084702000800F002F892
:1001900000F03CF80AA090E8000C82448344AAF1E5
:1001A0000107DA4501D100F031F8AFF2090EBAE8E3
:1001B0000F0013F0010F18BFFB1A43F0010318479B
:1001C000A82B0000C82B0000103A24BF78C878C1C3
:1001D000FAD8520724BF30C830C144BF04680C604D
:1001E000704700000023002400250026103A28BF95
:1001F00078C1FBD8520728BF30C148BF0B60704799
:100200001FB502F087FD1FBD10B510BD00F0D4F87A
:100210001146FFF7F5FF02F0F5FB00F0F2F803B42A
:10022000FFF7F2FF03BC00F0F5F800000948804733
:1002300009480047FEE7FEE7FEE7FEE7FEE7FEE7C8
:10024000FEE7FEE7FEE7FEE704480549054A064BE0
:10025000704700007D2000088D010008A0010020EB
:10026000A0070020A0030020A003002053EA020CF6
:1002700000F069802DE9F04B4FF00006002B1FBF06
:10028000B3FA83F503FA05F424FA05F65E4012BFCB
:100290001643B2FA82F502FA05F4C5F120051EBF35
:1002A00022FA05FC44EA0C04203556EA044C4FEAD5
:1002B000144418BF641C4FF000084FF0000990422E
:1002C00071EB030C39D3002919BFB1FA81F701FA98
:1002D00007F6B0FA80F700FA07F6C7F120071EBF4D
:1002E00020FA07FC46EA0C062037B6FBF4FCA7EB25
:1002F0000507103F07F01F0BCBF120060CFA0BFB94
:100300002CFA06F644BFB3460026202FA4BF5E4653
:100310004FF0000B5BEA060C08BF4FF0010B19EB26
:100320000B09ABFB027C48EB0608C01B06FB02CCAA
:100330000BFB03CC71EB0C01C1E70B4602464146B7
:100340004846BDE8F08B13B54FF000004FF00001B8
:10035000AFF30080BDE81C4070474FF0000200B5CD
:10036000134694469646203922BFA0E80C50A0E8D8
:100370000C50B1F12001BFF4F7AF090728BFA0E886
:100380000C5048BF0CC05DF804EB890028BF40F852
:10039000042B08BF704748BF20F8022B11F0804F94
:1003A00018BF00F8012B7047704770477047000076
:1003B00000487047400100207546FFF7F9FFAE4640
:1003C00005006946534620F00700854618B020B561
:1003D000FFF73AFFBDE820404FF000064FF000075E
:1003E0004FF000084FF0000B21F00701AC46ACE8DD
:1003F000C009ACE8C009ACE8C009ACE8C0098D464A
:10040000704710B50446AFF300802046BDE81040A9
:10041000FFF705BF01491820ABBEFEE7260002002A
:100420007047FEE7014800F023B80000F800002004
:1004300030B590F8444004F01C050124AC40056C34
:100440006C60046863608368102B036803D0996054
:100450000068C26030BD9A600068C16030BD7047FE
:10046000012000F019B9022000F016B972B6FEE7BB
:10047000F0B4016C0C6801680D6890F8442002F03B
:100480001C06042202FA06F3234211D06B070FD593
:100490000B689B0603D40B6823F004030B6090F8F1
:1004A000441001F01C018A40016C4A60016B1DE0A0
:1004B000022303FA06F727424FF0000C4FF0010227
:1004C00018D0AF0716D50C68A40605D40C6824F024
:1004D0000A040C6080F8252090F8441001F01C01FB
:1004E0008B40016C4B6080F824C0C16A00291AD08F
:1004F000F0BC08470823B340234214D02B0712D581
:100500000B6823F00E030B6090F84410036C01F0AD
:100510001C0102FA01F15960C26380F8252080F8BD
:1005200024C0416BE2E7F0BC7047000070B568B1D1
:100530002B4C036814212B4AA34209D22A4C1C4499
:10054000B4FBF1F18900C0E910210BE0012070BD7E
:10055000234C64421C44B4FBF1F1890041642049FE
:1005600008390164022180F825101C6847F6F071F3
:100570008C43D0E902152943D0E904563543294379
:1005800085692943C5692943056A294321431960BF
:100590008168B1F5804F19D0036C0F21934202D1CD
:1005A00052F8A83F02E00E4AA032136890F8444087
:1005B00004F01C04A1408B43136090F84430416860
:1005C00003F01C0399401368194311600021C163B3
:1005D000012280F8252080F82410084670BD000014
:1005E0000804024000000240F8FFFDBF70B5044659
:1005F00090F82400002501280CD0012084F8240064
:1006000094F825600020012E06D084F824000225ED
:10061000284670BD022070BD022684F82560E06384
:100620002068066826F0010606602046FFF700FFF6
:10063000206B00282068016802D041F00E0106E01E
:1006400021F0040101602068016841F00A010160A5
:100650002068016841F001010160D9E770B50446E6
:1006600000F02CF90546601C02D0044800780444D0
:1006700000F024F9401BA042FAD370BD080000200E
:10068000012801D0022803D10021024801F08EB9CF
:100690007047000024000020044910B50A68024297
:1006A00002D00860FFF7ECFF10BD00001404014009
:1006B0002DE9F04FDFF8E091002301270326A9F18F
:1006C000040B85B00F2509F1040AABF1040EDBE041
:1006D00007FA03FC12EA0C027ED00C7904F0030442
:1006E000012C01D0022C20D1846800945C0006FA11
:1006F00004F80494009C24EA08040094D1F80C80C7
:10070000049C08FA04F8009C48EA0408C0F8088031
:10071000446824EA0C0491F804C0CCF3001C0CFAE1
:1007200003FC4CEA040CC0F804C00C79E443A407B1
:100730000DD0D0F80CC04FEA430806FA08F42CEAB2
:10074000040C8C6804FA08F444EA0C04C4600C79C4
:1007500004F00304022C19D1DC0800EB8404029499
:10076000246A4FEA437C4FEADC6CCDF810C005FAEE
:100770000CFC24EA0C04D1F81080DDF810C008FA53
:100780000CF848EA0408029CC4F8208004684FEA88
:10079000430806FA08FC24EA0C0491F804C00CF0A3
:1007A000030C0CFA08FC4CEA040CC0F800C04C68BE
:1007B00014F4403F67D0394CD4F860C04CF0010CC1
:1007C000C4F860C0246E23F0030C04F0010400940C
:1007D000334C6444029400E055E0A4684FEA837C03
:1007E0004FEA1C7805FA08FC24EA0C04B0F1904F9B
:1007F00006D0DFF8B0C0604505D14FF0010C0BE02A
:100800004FF0000C08E0DFF8A0C0604502D14FF0C7
:10081000020C01E04FF0070C0CFA08FC4CEA040C47
:10082000029CC4F808C0D9F80040CC46D1F8048036
:1008300094435FEAC82800D51443CCF80040DAF8A6
:100840000040D446D1F8048094435FEA882800D55C
:100850001443CCF80040DBF80040DC46D1F80480BB
:1008600094435FEA883800D51443CCF80040DEF8A2
:100870000040F446D1F8048094435FEAC83800D5BC
:100880001443CCF800405B1C0C682246DC407FF42B
:100890001FAF05B000F00AB8080401400010024084
:1008A00000000140000400480008004830BCBDE8DA
:1008B000C08F0AB1816170478162704701488068CA
:1008C0007047000008000020024881680278114447
:1008D000816070470800002010B50024032000F05C
:1008E00071F80F2000F008F808B1012401E000F0D1
:1008F00025F8204610BD000070B50E4E05460024B8
:10090000307898B14FF47A71B1FBF0F00A49096878
:10091000B1FBF0F000F0B2FD40B9102D06D200227C
:100920002946501E00F02EF8756000E00124204694
:1009300070BD00000800002014000020094808B520
:10094000016E41F001010166016E01F001010091AB
:10095000816D41F080518165806D00F08050009084
:1009600008BD000000100240002809DB00F01F0253
:10097000012191404009800000F1E020C0F8001101
:1009800070470000F0B40E4B1B680C46C3F3022303
:10099000C3F10705042D00D90425191D072901D22B
:1009A000002300E0DB1E012606FA05F1491E214066
:1009B00099409E40761E16403143F0BC02F011B8BB
:1009C0000CED00E0064900F0070208684FF6FF034F
:1009D000184040EA0220034A1043086070470000B4
:1009E0000CED00E00000FA051649B0F5007F08683C
:1009F000C0F3412009D0022805D0086820F4C06067
:100A000040F480600860002070470128FBD008682F
:100A100020F4C06040F4007008600B483222006887
:100A200050430A4AB0FBF2F0401C00E0401E4A6905
:100A3000520501D50028F9D148694005E3D50320C6
:100A400070470000007000401400002040420F007A
:100A50000248006800F4C060704700000070004069
:100A60002DE9F84F0446002700889C4D3E460005BE
:100A700015D5E06B60B1B0F5000F04D0B0F5400FB4
:100A80002BD001270AE0E86840F48030E86024E0D9
:100A90000021201D01F0E0F907001ED03E4620682D
:100AA000800338D5A86D4FF00008C00009D4A86DA8
:100AB00040F08050A865A86D4FF0010800F080500C
:100AC0000090DFF81CA2DAF8001041F48071CAF837
:100AD0000010FFF7F3FE814610E0D5F88800E16BC7
:100AE00020F440000843C5F88800D8E7FFF7E6FE89
:100AF000A0EB0900022801D9032704E0DAF800007E
:100B0000C005F3D5EFB33E46B8F1000F03D0A86D92
:100B100020F08050A8652078C00707D0D5F888005D
:100B2000216A20F003000843C5F888002078800778
:100B300007D5D5F88800616A20F00C000843C5F895
:100B400088002078800607D5D5F88800A16A20F4AF
:100B500040600843C5F888002088800507D5D5F88F
:100B60008800616B20F440200843C5F88800208885
:100B7000400509D5D5F88800A16B20F44010084342
:100B800000E02EE0C5F888002078400607D5D5F8AB
:100B90008800E16A20F440500843C5F888002088A6
:100BA000C00507D5D5F88800216B20F440300843F4
:100BB000C5F8880020884FF0006780044FF08068F7
:100BC0004ED5D5F88800216C20F040600843C5F868
:100BD0008800206CB8423BD1E86840F48010E8609F
:100BE0003EE0D5F8900010F4407014D0216D8142A1
:100BF00011D0D5F89000D5F8901020F4407041F451
:100C00008031C5F89010D5F8901021F48031C5F8E6
:100C10009010C5F89000C00711D0FFF74FFE0746AF
:100C200041F2883907E000BFFFF748FEC11B494584
:100C300001D9032668E7D5F890008007F4D5D5F8E8
:100C40009000216D20F440700843C5F890005BE7E8
:100C5000404505D10121201D01F0FEF800B10646F6
:100C60002068400317D5D5F88800616C20F04060FB
:100C70000843C5F88800606CB84204D1E86840F4C5
:100C80008010E86007E0404505D10121201D01F0FA
:100C9000E3F800B106462088400411D5D5F8880055
:100CA000A16C20F040500843C5F88800A06CB0F15A
:100CB000805F05D10221201D01F0CEF800B106466B
:100CC0002088000406D555F8880FE16C20F080409C
:100CD00008432860304600F005B8000000100240CC
:100CE0000070004018BCBDE8E08F00002DE9F0471F
:100CF0000F4605006BD0494E306800F00700B8423F
:100D000009D2306820F0070038433060306800F0C6
:100D10000700B8425BD12878414C80070AD5A86803
:100D2000A16801F0F001884204D9A16821F0F00126
:100D30000143A1602878C0072CD06868032811D02F
:100D4000022812D0216898B1490500293FDAA1682C
:100D500021F003010143A160FFF7B0FD804641F29D
:100D6000883910E021688901EFE721688903ECE701
:100D70008907EAE7FFF7A2FDA0EB0801494502D980
:100D80000320BDE8F087A068696800F00C00B0EBB4
:100D9000810FEFD1287880070AD5A868A16801F0F3
:100DA000F001884204D2A16821F0F0010143A16062
:100DB000306800F00700B8420BD9306820F0070017
:100DC00038433060306800F00700B84201D001209D
:100DD000D7E72878400705D5A068E96820F4E060E7
:100DE0000843A0602878000706D5A068296920F488
:100DF000605040EAC100A06000F03EF8A168094AD6
:100E0000C1F30311515C01F01F01C840064908609D
:100E100006480068BDE8F047FFF76EBD00200240BD
:100E200000100240202D0008140000200C000020BB
:100E30000548064900688968054AC1F30221515CEA
:100E400001F01F01C840704714000020001002404C
:100E5000602D00080548064900688968054AC1F305
:100E6000C221515C01F01F01C840704714000020EE
:100E700000100240602D000870B525490023184677
:100E80008A68CC6812F00C0204F00306214C4FEA89
:100E9000640509D00C2A05D0042A32D0082A00D1D2
:100EA000284670BD012E10D10B681B0704D4D1F861
:100EB0009430C3F3032302E00B68C3F30313164E0D
:100EC00056F82330DAB10C2AEBD1C86800F00300E1
:100ED000022818D0032818D01846CA68CB68C2F375
:100EE0000212C3F306234343521CB3FBF2F2C86859
:100EF000C0F34160401C4000B2FBF0F070BD1846EA
:100F000070BD204670BD2046E7E72846E5E70000B3
:100F1000001002400024F400302D00082DE9F843B1
:100F200004006FD0FA4DA86800F00C06E86800F0E5
:100F300003072078C00664D576B10C2E01D1012FAD
:100F40000AD0A069002828687AD040F00100286003
:100F5000FFF7B4FC80465DE02868800702D5A069F1
:100F60000028DED0216A2868000703D5286800F031
:100F7000F00004E0D5F89400F02202EA101081425B
:100F800016D9084600F0FEFF00283BD1286840F043
:100F9000080028602868216A20F0F00008432860D3
:100FA0006868E16920F47F4040EA0120686016E04B
:100FB000286840F0080028602868216A20F0F000C6
:100FC000084328606868E16920F47F4040EA012016
:100FD000686026B9206A00F0D5FF0028D5D1FFF758
:100FE0004BFFA968CB4AC1F30311515C01F01F010B
:100FF000C840C9490860C9480068FFF77DFC00285F
:101000007ED12EE0CAE000BFFFF758FCA0EB08003D
:10101000022876D828688007F6D5286840F00800AE
:1010200028602868216A20F0F0000843286068687A
:10103000E16920F47F4040EA0120686011E0FFE7A9
:1010400020F001002860FFF739FC804606E000BF71
:10105000FFF734FCA0EB08000228DAD828688007E4
:10106000F6D42078C00740D0082E18D00C2E01D11D
:10107000032F14D06068B0F5803F17D0B0F5A02FD3
:10108000286817D020F480302860286820F4802059
:1010900028606068E0B1FFF711FC804614E0286822
:1010A000800322D56068002878D01EE0286840F4CC
:1010B0008030EDE740F480202860F7E7FFF7FEFB83
:1010C000A0EB08006428A4D828688003F6D50CE0BB
:1010D000FFF7F4FB804605E0FFF7F0FBA0EB08000C
:1010E000642896D828688003F6D4207880073BD5FA
:1010F000042E11D00C2E01D1022F0DD0E06801E09A
:10110000AAE1FFE0002828681ED040F48070286023
:10111000FFF7D4FB07460CE0286840050CD5E068D3
:101120000028C1D008E000BFFFF7C8FBC01B0228A1
:1011300093D828684005F7D56868217C20F0F850DE
:1011400040EA016068600FE020F480702860FFF7DB
:10115000B5FB074605E000BFFFF7B0FBC01B022848
:10116000B1D828684005F7D42078000729D56069F0
:101170000028D5F8940012D040F00100C5F8940082
:10118000FFF79CFB074604E0FFF798FBC01B022813
:1011900099D8D5F894008007F6D512E02BE120F01D
:1011A0000100C5F89400FFF789FB074605E000BF82
:1011B000FFF784FBC01B022885D8D5F89400800770
:1011C000F6D42078400766D5A86D0027C00008D463
:1011D000A86D40F08050A865A86D012700F08050F0
:1011E00000904F480168C90512D40168814641F456
:1011F00080710160FFF762FB804605E0FFF75EFB50
:10120000A0EB080002287DD8D9F80000C005F5D56C
:10121000A068012816D00528D5F8900017D020F036
:101220000100C5F89000D5F8900020F0040000BF40
:10123000C5F89000A06841F28839C0B1FFF73EFBC5
:1012400080460FE0D5F8900040F00100F0E740F054
:101250000400C5F89000F5E7FFF730FBA0EB0801AC
:1012600049454FD8D5F890008007F5D50EE0FFF737
:1012700025FB804606E000BFFFF720FBA0EB08013E
:1012800049453FD8D5F890008007F5D41FB1A86D27
:1012900020F08050A8652078800628D5606A002854
:1012A000D5F8980012D040F00100C5F89800FFF77B
:1012B00005FB074605E000BFFFF700FBC01B022847
:1012C00020D8D5F898008007F6D510E020F001006E
:1012D000C5F89800FFF7F2FA074604E0FFF7EEFAC8
:1012E000C01B02280ED8D5F898008007F6D4A06A53
:1012F000F0B3022816D00C2E7DD0286820F0807024
:10130000286000E0A7E0FFF7D9FA0446A6E0000055
:1013100000100240202D0008140000200C000020C6
:1013200000700040E868E26A00F00301914228D1B1
:10133000216B00F0700209011039914221D1626BDA
:1013400000F4FE41B1EB022F1BD194F8382000F0DD
:101350007841B1EBC26F14D1A18F00F4C0024908EB
:101360004905A1F5001191420BD194F8401000E01D
:101370006AE04908490600F0C060A1F100718142AD
:101380004BD00C2E73D02868400170D4286820F010
:1013900080702860FFF792FA064604E0FFF78EFAA5
:1013A000801B022857D828688001F7D4F4E90B0184
:1013B0006FF00F0202EB01110843218A5204490821
:1013C00002EB4151A26841EA02210843217D4FF01E
:1013D0007E42490802EB41610843217B40EAC1603B
:1013E000E968244A11400843E860286840F08070AA
:1013F0002860E86800E03AE040F08070E860FFF7BD
:101400005DFA044605E000BFFFF758FA001B02280A
:1014100021D828688001F7D527E02868800124D4E6
:10142000286840F080702860E86840F08070E860CC
:10143000FFF744FA044604E0FFF740FA001B0228D5
:1014400009D828688001F7D50FE000BFFFF736FA0A
:10145000001B022802D90320BDE8F8832868800118
:10146000F4D4E86804490840E8600020F4E701206B
:10147000F2E700008C809D01FCFFEEFE10B5401EDF
:10148000B0F1807F01D3012010BD4FF0E0246061F6
:101490000F21601701F0A5FA0020A061072020614C
:1014A000002010BD30B590F83C20012A37D0012231
:1014B00080F83C20CA688C6822F4407222434C6851
:1014C00022F4806222430C6822F4006222430C69F9
:1014D00022F4805222434C6922F4005222438C6A47
:1014E00022F4804222430C8B22F4702242EA04420E
:1014F0000C4D04680023AC420CD18D8C22F4700298
:1015000042EA0552CD6922F080722A43096A22F02C
:1015100000720A43626480F83C30002030BD022033
:1015200030BD0000002C0140F0B590F83C20012AAD
:1015300029D0012480F83C40022280F83D20036835
:101540005A689D68114EB34203D122F470074A686D
:101550003A4322F070070A683A435A600268B2427E
:1015600005D0B2F1804F02D0094B9A4204D189686C
:1015700025F080031943916080F83D40002180F8F8
:101580003C100846F0BD0220F0BD0000002C0140D8
:101590000040014010B5040003D094F83D0010B1A4
:1015A00007E0012010BD002084F83C00204600F038
:1015B00023F8022084F83D00211D206800F066FD1C
:1015C000012084F8480084F83E0084F83F0084F845
:1015D000400084F8410084F8420084F8430084F815
:1015E000440084F8450084F8460084F8470084F8F5
:1015F0003D00002010BD000008B500680649884283
:1016000008D10648016E41F400610166006E00F4E5
:101610000060009008BD0000002C01400010024056
:1016200070B5044690F83C000025012817D001262B
:1016300084F83C60022084F83D00226890682F4BBB
:10164000184020F47F4090600868502838D00DDCA6
:1016500020284FD005DC90B3102811D14AE0022099
:1016600070BD302846D040280AD13BE060282FD0FA
:1016700070280DD0B0F5805F03D0B0F5005F12D0B8
:10168000012584F83D60002084F83C00284670BDA8
:10169000CB68D1E90121206800F041FD2068816814
:1016A00041F0770109E0CB68D1E90121206800F021
:1016B00036FD2068816841F480418160E1E719E0EE
:1016C000CA684968206800F07BFE5021206806E067
:1016D000CA684968206800F084FE6021206800F034
:1016E00028FDCEE7CA684968206800F069FE4021FD
:1016F0002068F4E7226801461046F0E788FFFEFF05
:1017000010B586B0044614216846FEF726FE0F4940
:101710002068884217D10E48C16C41F00101C164B4
:10172000C06C694600F0010005904FF48070009095
:1017300002200190002002900390012004904FF0BD
:101740009040FEF7B5FF06B010BD0000002C014030
:101750000010024070B5044690F83C0000260D468B
:1017600001280BD0012084F83C000C2A4AD007DC69
:1017700082B1042A20D0082A06D131E0022070BDAF
:10178000102A53D0142A63D00126002084F83C008C
:10179000304670BD206800F0D5FC2068816941F0BA
:1017A000080181612068816921F00401816120685C
:1017B00081692A69114311E0206800F0FFFC20686C
:1017C000816941F4006181612068816921F480614F
:1017D0008161206881692A6941EA02218161D4E737
:1017E000206800F027FD2068C16941F00801C1614F
:1017F0002068C16921F00401C1612068C1692A69BA
:10180000114311E0206800F04FFD2068C16941F4E8
:101810000061C1612068C16921F48061C1612068F3
:10182000C1692A6941EA0221C161AEE7206800F07E
:101830006BFD2068416D41F0080141652068416DF4
:1018400021F0040141652068416D2A69114311E0CE
:10185000206800F087FD2068416D41F4006141651A
:101860002068416D21F4806141652068416D2A69DD
:1018700041EA0221416588E710B5040003D094F8DD
:101880003D0010B107E0012010BD002084F83C00AD
:10189000204600F022F8022084F83D00211D206837
:1018A00000F0F4FB012084F8480084F83E0084F83E
:1018B0003F0084F8400084F8410084F8420084F836
:1018C000430084F8440084F8450084F8460084F816
:1018D000470084F83D00002010BD704710B5044655
:1018E000022269B1042912D0082917D00C291CD072
:1018F000102921D094F84300012824D0012010BDE4
:1019000094F83E000128F9D184F83E201DE094F8B7
:101910003F000128F2D184F83F2016E094F84000FF
:101920000128EBD184F840200FE094F84100012811
:10193000E4D184F8412008E094F842000128DDD188
:1019400084F8422001E084F843200122206800F05E
:10195000D9FB12492068124A884204D0904202D032
:10196000104B984203D1436C43F400434364206816
:10197000884204D0B0F1804F01D0904207D18168F5
:10198000094A1140062906D0B1F5803F03D001680D
:1019900041F001010160002010BD0000002C014059
:1019A00000400140004401400700010030B50446FA
:1019B0000D460068002200F0A5FB1F4B41F21112FA
:1019C00020689110984205D01C4B984202D01C4BC5
:1019D000984209D1036A134206D1036A0B4203D12C
:1019E000436C23F4004343642068036A134206D126
:1019F000026A0A4203D1016821F00101016001205D
:101A00005DB1042D0CD0082D0DD00C2D0ED0102D55
:101A10000FD084F84300002030BD84F83E00FAE780
:101A200084F83F00F7E784F84000F4E784F84100C9
:101A3000F1E784F84200EEE7002C0140004001404D
:101A4000004401407047704710B5040002D0E06FB9
:101A500010B107E0012010BD002084F87800204676
:101A600000F026F82420E0672068016821F00101D9
:101A70000160606A10B1204600F0C5FC204600F00D
:101A800027FE0128E7D02068416821F49041416099
:101A90002068816821F02A0181602068016841F096
:101AA000010101602046BDE8104000F010BD0000BB
:101AB000F0B59BB00646142115A8FEF74EFC542144
:101AC0006846FEF74AFC2249306888423ED1012030
:101AD0000025009008956846FEF7C2FF08B1FEF7A2
:101AE000C5FC1C49086E40F480400866086E00F48E
:101AF00080401A90C86C40F00100C864C86C02278E
:101B000000F001001A904FF4C060CDE915070320E2
:101B1000CDE917500720199015A94FF09040FEF716
:101B2000C7FD0E4C0C482060C4E901758020C4E953
:101B3000035020206561C4E9065020462562FEF767
:101B4000F5FC08B1FEF792FC7467A6621BB0F0BD0D
:101B5000003801400010024058000240F800002008
:101B600030B4D0F88030202B02D0022030BC704737
:101B7000A9B1A2B1002303660A4C0368A3420BD0AB
:101B80005B681B0208D5046854E8003F43F080639B
:101B900044E80035002DF6D130BC00F087BE0120AE
:101BA000E4E700000080004070B532492DED028B63
:101BB00088425BD1A1F158002F4C8088583940BA37
:101BC0002080097AB0F5805F0BD0B0F5005F4DD171
:101BD0002A48E9B3012945D0022947D14AF2C22156
:101BE00042E0264D9FED268B08354FF09046F1B12F
:101BF00001293BD11F4800214C38FFF7D7FE606810
:101C000000F073FF53EC182B00F086FF00F040FF4C
:101C10002860184800214C38FFF760FE0022BDEC18
:101C2000028B3046BDE870400121FEF742BE1148EC
:101C300000214C38FFF7BAFE606800F056FF53EC05
:101C4000182B00F069FF00F023FF2860002100E05E
:101C500005E008484C38FFF741FE0122DFE74FF26C
:101C6000244101E04CF2503161600160BDEC028B17
:101C700070BD000070000020000000202C2C0140EE
:101C80009A9999999999C93F7047FEE72DE9F041D2
:101C900086B014216846FEF760FB2748C16C41F00E
:101CA0000101C164C16C01F001010591C16C41F0F9
:101CB0000201C164C06C4FF0904700F00200059033
:101CC000002203213846FEF7F4FDDFF87080002281
:101CD00008214046FEF7EDFD03260125002400966D
:101CE000CDE90154694638460394FEF7E1FC4FF410
:101CF00004100096CDE9010569464046FEF7D8FC80
:101D000008200090CDE90154694640460394FEF74F
:101D1000CFFC002211460620FEF734FE0620FEF717
:101D200023FE002211460720FEF72CFE0720FEF7B7
:101D30001BFE06B0BDE8F081001002400004004820
:101D400010B59AB000241794189415941694129410
:101D500013941C210BA81494FEF7FFFA2C2168465B
:101D6000FEF7FBFA2B482A4901604F21C0E9011414
:101D700040F2E731C0E9031444618461FFF70AFCD3
:101D800008B172B6FEE74FF48050159015A92148AE
:101D9000FFF746FC08B172B6FEE71E48FFF76CFD80
:101DA00008B172B6FEE71294139412A9194814945C
:101DB000FFF7BAFB08B172B6FEE76020CDE90B046D
:101DC0000D940E940F94109400220BA911481194B5
:101DD000FFF7C0FC08B172B6FEE700944FF4005064
:101DE000CDE9044001940294039400030694CDE9E4
:101DF00007400994694607480A94FFF753FB08B166
:101E000072B6FEE70348FFF77BFC1AB010BD000076
:101E1000002C0140240000200C4810B50A49016044
:101E20004FF4E1314160002181600C22C160C0E9C2
:101E300004128161C16101624162FFF705FE002861
:101E400001D072B6FEE710BD0038014070000020DE
:101E5000FEE7FEE7704700002DE9F041444C0546DF
:101E60008846E0680026810728680DD0E16801F007
:101E70000301814216D1A8B1E0686968C0F302107D
:101E8000401C88420ED120E0012804D0022805D051
:101E9000032807D108E02168890701E02168490586
:101EA000002907DB01265FE02168890302D421684D
:101EB0004903F5E7E1686A686FF00F0321F07301E9
:101EC00003EB021211430143E160206820F08060BF
:101ED0002060FEF7F3FC074605E000BFFEF7EEFCCE
:101EE000C01B022837D820680001F7D4B8F1000FD2
:101EF00018D0B8F1010F1DD0287D4FF07E41400869
:101F000001EB4060A96840EA01202169194A1140AB
:101F100008432061206840F080602060FEF7CEFC1E
:101F200007461AE0A868297B000240EAC1602169DF
:101F3000114AECE7288A1149400801EB4050A96892
:101F400040EA012021690E4AE1E700BFFEF7B6FC36
:101F5000C01B022801D9032606E020680001F5D540
:101F60002069A969084320613046BDE8F08100007E
:101F700000100240FF80FFF9FF80FF070000E0FF34
:101F8000FF809FFFF8B51C4D06460024A86DC000D9
:101F900002D5FEF75DFD0DE0A86D40F08050A8650C
:101FA000A86D00F080500090FEF752FDA96D21F061
:101FB0008051A965B0F5007F04D0802E07D94FF07D
:101FC00003040AE0802E08D9A02E01D804E001D134
:101FD000022402E0702E00D101240848016821F09B
:101FE000070121430160006800F00700A04201D012
:101FF0000120F8BD0020F8BD001002400020024082
:102000007047FEF761BC10B596B044216846FEF7F4
:10201000A4F9142111A8FEF7A0F94FF40070FEF7FF
:10202000E3FC08B172B6FEE7102000900120002406
:1020300060210690CDE907410221CDE90A100C90FC
:1020400028200D900720CDE90E0168461091FEF77B
:1020500065FF08B172B6FEE70F2011900320CDE9AD
:1020600012041494042111A81594FEF73FFE0028D1
:1020700001D072B6FEE716B010BD0000024801683C
:1020800041F470010160704788ED00E070B50268AE
:10209000194B4FF08046984201D0B04203D122F054
:1020A00070044A682243154C154D984205D0B04241
:1020B00003D0A04201D0A84203D122F44076CA68DE
:1020C00032434E6922F08002324302608A68C26263
:1020D0000A688262984203D0A04201D0A84201D18E
:1020E00009690163012141610169C90703D00169DF
:1020F00021F00101016170BD002C01400040014050
:102100000044014010B501F01F030121046A994009
:102110008C430462016A9A401143016210BD10B5FC
:10212000846842EA032224F47F440A432243826003
:1021300010BD826822F070020A4342F007018160FC
:1021400070470000F0B5056A026A22F001020262DF
:1021500043688269154C25F0020522400C6822F084
:10216000030214438A68134E2A43114D124FA842AA
:1021700003D0B04201D0B84206D122F0080CCA68A0
:1021800042EA0C0222F00402A84203D0B04201D07D
:10219000B84205D14D6923F440731D438B692B432D
:1021A00043608461496841630262F0BD8FFFFEFFB6
:1021B000002C0140004001400044014030B5046A59
:1021C000026A22F01002026242688369154D2B40B8
:1021D0000D6823F4407343EA052524F020038C683E
:1021E00043EA0413104CA04207D1CC6823F08003CB
:1021F00043EA041323F0400305E00C4CA04202D054
:102200000B4CA04207D14C6922F4406242EA84029E
:102210008C6942EA84024260856149688163036295
:1022200030BD0000FF8FFFFE002C01400040014048
:102230000044014030B5046A026A22F480720262EE
:102240004268C369144D2B400D6823F003031D43FE
:1022500024F400738C6843EA0423104CA04207D195
:10226000CC6823F4006343EA042323F4806305E08D
:102270000B4CA04202D00B4CA04207D14C6922F477
:10228000405242EA04128C6942EA04124260C5617B
:102290004968C163036230BD8FFFFEFF002C01401F
:1022A000004001400044014030B5046A026A22F453
:1022B000805202624268C3690F4D24F400542B40DF
:1022C0000D6823F4407343EA05238D6844EA05341E
:1022D0000A4DA84205D00A4DA84202D0094DA84295
:1022E00004D14D6922F4804242EA85124260C36102
:1022F00049680164046230BDFF8FFFFE002C01407D
:10230000004001400044014030B5046A026A22F4F2
:10231000803202624268436D0E4D2B400D681D43B2
:1023200024F400330C8943EA04430B4CA04205D04B
:102330000A4CA04202D00A4CA04204D14C6922F4BB
:10234000803242EA04224260456549688165036241
:1023500030BD00008FFFFEFF002C01400040014017
:102360000044014030B5046A026A22F4801202621D
:102370004268436D0E4D24F400142B400D6843EA6F
:1023800005230D8944EA05540A4DA84205D00A4D9B
:10239000A84202D0094DA84204D14D6922F48022FE
:1023A00042EA8522426043654968C165046230BDE6
:1023B000FF8FFFFE002C014000400140004401401F
:1023C00010B5036A046A24F001040462846924F0ED
:1023D000F00444EA021423F00A020A438461026210
:1023E00010BD10B5036A046A24F010040462846905
:1023F00023F0A00324F4704444EA023243EA0111BA
:102400008261016210BD90F82410090706D50168A9
:102410004A68436B22F400421A434A6090F8241041
:10242000C90706D001684A68836A22F400321A4359
:102430004A6090F82410890706D501684A68C36A83
:1024400022F480321A434A6090F82410490706D5D6
:1024500001684A68036B22F480221A434A6090F8AC
:102460002410C90606D501688A68836B22F480525D
:102470001A438A6090F82410890606D501688A6894
:10248000C36B22F400521A438A6090F82410490664
:1024900011D501684A68036C22F480121A434A601D
:1024A000016CB1F5801F06D101684A68436C22F4C3
:1024B000C0021A434A6090F82410090606D5016844
:1024C0004A68806C22F4002202434A6070472DE97A
:1024D000F84300260446C0F88460FEF7EFF9804612
:1024E000206800684FF0200500076FF07E4712D586
:1024F0004346002229042046009700F027FA50B1F5
:10250000216851E8000F20F0800041E80002002A15
:10251000F6D1E56721E020680068400722D54346F0
:1025200000224FF480012046009700F00FFAC8B156
:10253000216851E8000F20F4907041E80002002A61
:10254000F6D12068083050E8001F21F0010140E872
:102550000012002AF5D1C4F8805084F87860032076
:10256000BDE8F883E567C4F8805044F8606F6660A2
:1025700026760020F4E770B5846AE06FD4F88050C6
:10258000216889684FF00006090606D5212804D184
:10259000A4F85260204600F08EF82068806840065B
:1025A00006D5222D04D1A4F85A60204600F05DF82B
:1025B000D4F8840040F01000C4F884002046FFF7EF
:1025C00042FA70BD10B50146806A096809684FF08B
:1025D000000289062DD4A0F85A20036853E8001F92
:1025E00021F4807143E80014002CF6D10168083111
:1025F00051E8003F23F0010341E80034002CF5D1FD
:102600000168083151E8003F23F0400341E80034FD
:10261000002CF5D12021C0F88010016E012908D1CD
:10262000016851E8003F23F0100341E80034002C1A
:10263000F6D14266016E012902D0FFF7B5FA10BD4E
:10264000B0F85810FFF7FEF910BD10B5806A0121EF
:102650004166016E012902D0FFF716FB10BDB0F8EC
:1026600058104908FFF7EEF910BD016851E8002F36
:1026700022F4907241E80023002BF6D10168083162
:1026800051E8002F22F0010241E80023002BF5D190
:10269000016E012908D1026852E8001F21F01001E3
:1026A00042E80013002BF6D12021C0F88010002151
:1026B000016681667047026852E8001F21F0C00180
:1026C00042E80013002BF6D12021C16770470000BB
:1026D0002DE9F0410446016880682269E6691043EB
:1026E0006269002532431043694B0A68694E3240E3
:1026F00002430A6020684168E26821F440511143B6
:1027000041602168A069994201D0226A10438A6819
:1027100022F4306202438A605F4927685F488F4233
:102720000DD1D0F8880010F0030006D0012838D071
:10273000022834D0032821D135E001211FE0584977
:102740008F420BD1D0F8880010F00C0025D004285F
:1027500027D0082823D00C2810D124E09F420DD187
:10276000D0F8880010F4406017D0B0F5806F18D012
:10277000B0F5006F13D0B0F5406F14D01021494A66
:1027800000264FF400409F422FD171B102290FD093
:1027900004290FD0082973D10FE00021EFE70221AF
:1027A000EDE70421EBE70821E9E7FEF741FB03E051
:1027B000104602E0FEF760FBF0B3626802EB4201F4
:1027C00081425DD8B0EB023F5AD8010E0302500897
:1027D000181871410023FDF749FD334AA0F54071F7
:1027E00091424DD82168C8604BE0E3694FF6EF771E
:1027F000834228D1092943D2DFE801F005080B42C2
:102800000D4242421000FEF713FB06E0FEF722FBEA
:1028100003E0104602E0FEF72FFB68B1410060685C
:1028200001EB5001B1FBF0F0A0F11001B94227D843
:102830004FF6F071014000E023E0C0F34200014395
:102840002068C1601DE009291AD2DFE801F00508FF
:102850000B190D1919191000FEF7EAFA06E0FEF738
:10286000F9FA03E0104602E0FEF706FB48B16168A2
:1028700000EB5100B0FBF1F0A0F11001B94205D915
:102880000125A6662846E666BDE8F08180B2A9E784
:1028900000800040F369FFEF003801400010024063
:1028A000004400400024F400FFFC0F0070B54165B7
:1028B000A0F8582000210446C0F884102220C4F853
:1028C0008000606FD0B11E4BC362636F1D481863F8
:1028D000636F1D485863606F13468163656D21689F
:1028E0002A462431606FFDF781FE38B11020C4F80C
:1028F00084002020C4F88000012070BD206940B110
:10290000216851E8000F40F4807041E80002002A7D
:10291000F6D12068083050E8001F41F0010140E87E
:102920000012002AF5D12068083050E8001F41F05D
:10293000400140E80012002AF5D1002070BD0000DF
:10294000C52500084B260008772500082DE9F0472B
:10295000994617460D4604464FF00008089E33E09E
:10296000701C31D0FDF7AAFFA0EB0900B04218D8C7
:10297000BEB120680168490726D5802D24D0402D9E
:1029800022D0C169C94309070DD408250562204634
:10299000FFF76BFEC4F8845084F878800120BDE80E
:1029A000F0870320FBE7C069C04300050CD4216811
:1029B0004FF4006008622046FFF757FE2020C4F85D
:1029C000840084F87880ECE72068C06935EA00006C
:1029D00004D00020B842C3D00020E0E70120F9E78E
:1029E000FEE70907090E002804DB00F1E02080F86B
:1029F0000014704700F00F0000F1E02080F8141D73
:102A00007047000008B5FDF767FFFFF7FCFAFFF716
:102A10003DF91948816C41F001018164806C00220C
:102A200000F00100009011460F20FDF7ABFF0F20D2
:102A3000FDF79AFFFFF784F9FFF7EEF94FF4FA700C
:102A4000FDF70CFE0D49092201F15800FFF788F847
:102A50000B484068044600F048F89FED0A1B53EC11
:102A6000112B00F059F800F013F8084908600749E5
:102A7000A0B208390860FEE70010024018000020EC
:102A8000000000209A9999999999C93F342C0140E6
:102A90004FEA1153A3F58063D3F11E03A8BFD3F10E
:102AA000200C08DB4FF0004242EAC12252EA5052A9
:102AB00032FA03F0704709420BD4102BC4BF002038
:102AC000704703F5787CBCF1FF3F05D04FF0FF3035
:102AD00070474FF00000704770B500F0C7F800BFB6
:102AE0004992248000207047F0E710F0004248BF70
:102AF0004042B0FA80F310FA03F10AD0C3F11D038B
:102B000003F580634FEA415002EB035202EBD121FF
:102B100070474FF000007047DFF848C170B51CEAFD
:102B2000111E1EBF1CEA13159EEA0C0F95EA0C0F2E
:102B300000F06F8081EA030423EA4C134EEAD47E4E
:102B400021EA4C1141F4801143F48013AE44A1FBFF
:102B5000024CA0FB0365AEF17F7E361955EB0C05E8
:102B6000A1FB034C4CF10003A0FB021C16EB0C066E
:102B7000654153F10003094218BF46F0010613F402
:102B8000007F0BD14FEA03314FEA0530340341EAAD
:102B9000155140EA16506FF003020AE04FEAC321D4
:102BA0004FEAC520F40241EA555140EA56506FF011
:102BB000020202EB2E4201EB025585EACE710AD0E9
:102BC0005FEA440C18BF24F0004450F1000041F1CA
:102BD000000120EAD47040F2FE7C624500D270BD54
:102BE000A84214BF4FF080444FF04044002E08BF6D
:102BF0000024BEF1806FA8BFA1F1C041BDE87040C4
:102C000080F282804FF0000001F1C04101F00041EC
:102C100070479EEA0C0F0CEA131518BF95EA0C0FCB
:102C200006D04FF0000081EA030E0EF0004170BDA7
:102C300000F01CF88900013E00F007B800F009B868
:102C40004FEA430C5FEA5C5C08D081EA030100F0C4
:102C50005BB84FEA410C5FEA5C5CF6D14FF00000D4
:102C6000014970470000FF070000F87F0EF1020ED7
:102C70002EF0030E5EF8046B364205D4012A43EBB6
:102C8000030515F5001F12D8012841EB010C1CF5B6
:102C9000001F0CD80ED14FEAD17C15F5001F0CEBAC
:102CA0004C0C0CF1020C08BF4CEBD37C04E04FF051
:102CB000080C01E04FEAD37C0CEB4C0526FA05F634
:102CC00006F00706B6F1040C06D20EEB860CBDE842
:102CD00070404CF0010C6047DFE80CF0090B020279
:102CE0004FF000414FF00000A1F5002170BD1946E2
:102CF0001046012851EB010418BFD4F5001484BF1D
:102D0000002001F0004170BD0808A0F500114FEA55
:102D1000310170474FF04070E1EE100A704700003B
:102D2000000000000000000001020304060708097B
:102D3000A0860100400D0300801A060000350C003B
:102D400040420F0080841E0000093D0000127A00FE
:102D50000024F40000366E010048E801006CDC023B
:102D60000000000001020304882D0008000000207C
:102D700018000000C8010008A02D0008180000205D
:102D800088070000E401000800000000F4010000D2
:102D900001000000100000000000000000093D00DC
:040000050800018D61
:00000001FF
